{
  "contractName": "GSTContract",
  "abi": [
    {
      "constant": true,
      "inputs": [],
      "name": "Check_Slab",
      "outputs": [
        {
          "name": "",
          "type": "uint256"
        }
      ],
      "payable": false,
      "stateMutability": "view",
      "type": "function"
    },
    {
      "constant": true,
      "inputs": [],
      "name": "GST_App",
      "outputs": [
        {
          "name": "",
          "type": "string"
        }
      ],
      "payable": false,
      "stateMutability": "view",
      "type": "function"
    },
    {
      "inputs": [],
      "payable": false,
      "stateMutability": "nonpayable",
      "type": "constructor"
    },
    {
      "constant": true,
      "inputs": [
        {
          "name": "taxable_amount",
          "type": "uint256"
        },
        {
          "name": "item",
          "type": "uint256"
        },
        {
          "name": "amount_paid",
          "type": "uint256"
        },
        {
          "name": "origin",
          "type": "string"
        },
        {
          "name": "destination",
          "type": "string"
        }
      ],
      "name": "GST",
      "outputs": [
        {
          "name": "",
          "type": "string"
        }
      ],
      "payable": false,
      "stateMutability": "view",
      "type": "function"
    }
  ],
  "bytecode": "0x60806040526040805190810160405280600681526020017f41637469766500000000000000000000000000000000000000000000000000008152506000908051906020019061004f9291906100b3565b5060106001556040805190810160405280600581526020017f5261676875000000000000000000000000000000000000000000000000000000815250600290805190602001906100a09291906100b3565b503480156100ad57600080fd5b50610158565b828054600181600116156101000203166002900490600052602060002090601f016020900481019282601f106100f457805160ff1916838001178555610122565b82800160010185558215610122579182015b82811115610121578251825591602001919060010190610106565b5b50905061012f9190610133565b5090565b61015591905b80821115610151576000816000905550600101610139565b5090565b90565b610bc6806101676000396000f300608060405260043610610057576000357c0100000000000000000000000000000000000000000000000000000000900463ffffffff16806334c8dd7d1461005c5780638413e2ae14610087578063ba0773be14610117575b600080fd5b34801561006857600080fd5b5061007161025d565b6040518082815260200191505060405180910390f35b34801561009357600080fd5b5061009c610263565b6040518080602001828103825283818151815260200191508051906020019080838360005b838110156100dc5780820151818401526020810190506100c1565b50505050905090810190601f1680156101095780820380516001836020036101000a031916815260200191505b509250505060405180910390f35b34801561012357600080fd5b506101e2600480360381019080803590602001909291908035906020019092919080359060200190929190803590602001908201803590602001908080601f0160208091040260200160405190810160405280939291908181526020018383808284378201915050505050509192919290803590602001908201803590602001908080601f0160208091040260200160405190810160405280939291908181526020018383808284378201915050505050509192919290505050610301565b6040518080602001828103825283818151815260200191508051906020019080838360005b83811015610222578082015181840152602081019050610207565b50505050905090810190601f16801561024f5780820380516001836020036101000a031916815260200191505b509250505060405180910390f35b60015481565b60008054600181600116156101000203166002900480601f0160208091040260200160405190810160405280929190818152602001828054600181600116156101000203166002900480156102f95780601f106102ce576101008083540402835291602001916102f9565b820191906000526020600020905b8154815290600101906020018083116102dc57829003601f168201915b505050505081565b6060600080600154871415610687576064886001540281151561032057fe5b04880186141561064457836040516020018082805190602001908083835b602083101515610363578051825260208201915060208101905060208303925061033e565b6001836020036101000a0380198251168184511680821785525050505050509050019150506040516020818303038152906040526040518082805190602001908083835b6020831015156103cc57805182526020820191506020810190506020830392506103a7565b6001836020036101000a038019825116818451168082178552505050505050905001915050604051809103902060001916856040516020018082805190602001908083835b6020831015156104365780518252602082019150602081019050602083039250610411565b6001836020036101000a0380198251168184511680821785525050505050509050019150506040516020818303038152906040526040518082805190602001908083835b60208310151561049f578051825260208201915060208101905060208303925061047a565b6001836020036101000a038019825116818451168082178552505050505050905001915050604051809103902060001916141561056057878603915061051a6040805190810160405280601b81526020017f5375636365737366756c6c7920706169642049475354203d2025730000000000815250836106d2565b6105596040805190810160405280601e81526020017f5375636365737366756c6c7920706169642049475354206f662052733a200000815250836107d9565b92506106c7565b600288870381151561056e57fe5b0490506105d7606060405190810160405280602181526020017f5375636365737366756c6c79207061696420434753542c2053475354203d202581526020017f7300000000000000000000000000000000000000000000000000000000000000815250826106d2565b61063d606060405190810160405280602481526020017f5375636365737366756c6c79207061696420434753542c2053475354206f662081526020017f52733a2000000000000000000000000000000000000000000000000000000000815250826107d9565b92506106c7565b6106826040805190810160405280601381526020017f546178206e6f742066756c6c7920706169642100000000000000000000000000815250610a74565b6106c6565b6106c56040805190810160405280601381526020017f54617820736c6162206e6f7420657175616c2100000000000000000000000000815250610a74565b5b5b505095945050505050565b6107d582826040516024018080602001838152602001828103825284818151815260200191508051906020019080838360005b83811015610720578082015181840152602081019050610705565b50505050905090810190601f16801561074d5780820380516001836020036101000a031916815260200191505b5093505050506040516020818303038152906040527f9710a9d0000000000000000000000000000000000000000000000000000000007bffffffffffffffffffffffffffffffffffffffffffffffffffffffff19166020820180517bffffffffffffffffffffffffffffffffffffffffffffffffffffffff8381831617835250505050610b72565b5050565b606060006060600080606080600060649650866040519080825280601f01601f19166020018201604052801561081e5781602001602082028038833980820191505090505b509550600094505b6000891415156108bd57600a8981151561083c57fe5b069350600a8981151561084b57fe5b049850836030017f010000000000000000000000000000000000000000000000000000000000000002868680600101975081518110151561088857fe5b9060200101907effffffffffffffffffffffffffffffffffffffffffffffffffffffffffffff1916908160001a905350610826565b899250848351016040519080825280601f01601f1916602001820160405280156108f65781602001602082028038833980820191505090505b509150600090505b82518110156109ab57828181518110151561091557fe5b9060200101517f010000000000000000000000000000000000000000000000000000000000000090047f010000000000000000000000000000000000000000000000000000000000000002828281518110151561096e57fe5b9060200101907effffffffffffffffffffffffffffffffffffffffffffffffffffffffffffff1916908160001a90535080806001019150506108fe565b600090505b84811015610a6457858160018703038151811015156109cb57fe5b9060200101517f010000000000000000000000000000000000000000000000000000000000000090047f0100000000000000000000000000000000000000000000000000000000000000028284518301815181101515610a2757fe5b9060200101907effffffffffffffffffffffffffffffffffffffffffffffffffffffffffffff1916908160001a90535080806001019150506109b0565b8197505050505050505092915050565b610b6f816040516024018080602001828103825283818151815260200191508051906020019080838360005b83811015610abb578082015181840152602081019050610aa0565b50505050905090810190601f168015610ae85780820380516001836020036101000a031916815260200191505b50925050506040516020818303038152906040527f41304fac000000000000000000000000000000000000000000000000000000007bffffffffffffffffffffffffffffffffffffffffffffffffffffffff19166020820180517bffffffffffffffffffffffffffffffffffffffffffffffffffffffff8381831617835250505050610b72565b50565b600080825191506a636f6e736f6c652e6c6f679050602083016000808483855afa50505050505600a165627a7a7230582053e143295ef0e57886106b9252f64bf507d26288ac1d8263dc52ccbd579699c30029",
  "source": "// SPDX-License-Identifier: MIT\n\n// Declare the versions of the Solidity Compiler\npragma solidity ^0.4.4;\n// library for logging in console\nimport \"hardhat/console.sol\";\n\n// Used to convert unint to string\n//import \"@openzeppelin/contracts/utils.Strings.sol\";\n\ncontract GSTContract{\n    string public GST_App = \"Active\"; //checks whether active or not\n    uint public Check_Slab = 16; // tax slab is 16% example\n    string myName = \"Raghu\";\n\n    constructor() {}\n    // function funcName (parameterlist) scope returns() {statements}\n    // takes input taxable_amount = 100rs, item = 16%, amount_amount = 116rs, origin = A, destination = B\n    \n    function GST(uint taxable_amount, uint item, uint amount_paid, string memory origin, string memory destination) public view returns (string memory){\n        if(item == Check_Slab){\n            if(amount_paid == (taxable_amount + ((Check_Slab*taxable_amount))/100)){\n                if(keccak256(abi.encodePacked((origin))) == keccak256(abi.encodePacked((destination)))){\n                    uint igst = amount_paid - taxable_amount;\n                    console.log(\"Successfully paid IGST = %s\", igst);\n                    //return igst;\n                    return appendUintToString(\"Successfully paid IGST of Rs: \", igst);\n                    \n                }\n                else{\n                    uint cgst = (amount_paid - taxable_amount)/2;\n                    //uint sgst = (amount_paid - taxable_amount)/2;\n                    console.log(\"Successfully paid CGST, SGST = %s\", cgst);\n                    return appendUintToString(\"Successfully paid CGST, SGST of Rs: \", cgst);                   \n                }\n            }else{console.log(\"Tax not fully paid!\");}\n        }else{console.log(\"Tax slab not equal!\");}\n    }\n\n    // This function concatenate Uint & String\n    function appendUintToString(string memory inStr, uint v) private view returns (string memory str) {\n        uint maxlength = 100;\n        bytes memory reversed = new bytes(maxlength);\n        uint i = 0;\n        while (v != 0) {\n            uint remainder = v % 10;\n            v = v / 10;\n            reversed[i++] = byte(48 + remainder);\n        }\n        bytes memory inStrb = bytes(inStr);\n        bytes memory s = new bytes(inStrb.length + i);\n        uint j;\n        for (j = 0; j < inStrb.length; j++) {\n            s[j] = inStrb[j];\n        }\n        for (j = 0; j < i; j++) {\n            s[j + inStrb.length] = reversed[i - 1 - j];\n        }\n        str = string(s);\n    }\n\n} \n",
  "sourcePath": "/home/kiran/Desktop/hello-eth/contracts/gst.sol",
  "compiler": {
    "name": "solc",
    "version": "0.4.26+commit.4563c3fc.Emscripten.clang"
  },
  "schemaVersion": "3.4.7",
  "updatedAt": "2022-05-25T05:57:32.812Z",
  "networkType": "ethereum",
  "devdoc": {
    "methods": {}
  },
  "userdoc": {
    "methods": {}
  }
}