{
  "contractName": "TestContract",
  "abi": [
    {
      "inputs": [],
      "stateMutability": "nonpayable",
      "type": "constructor"
    },
    {
      "inputs": [],
      "name": "Check_Slab",
      "outputs": [
        {
          "internalType": "uint256",
          "name": "",
          "type": "uint256"
        }
      ],
      "stateMutability": "view",
      "type": "function"
    },
    {
      "inputs": [],
      "name": "GST_App",
      "outputs": [
        {
          "internalType": "string",
          "name": "",
          "type": "string"
        }
      ],
      "stateMutability": "view",
      "type": "function"
    },
    {
      "inputs": [
        {
          "internalType": "uint256",
          "name": "taxable_amount",
          "type": "uint256"
        },
        {
          "internalType": "uint256",
          "name": "item",
          "type": "uint256"
        },
        {
          "internalType": "uint256",
          "name": "amount_paid",
          "type": "uint256"
        },
        {
          "internalType": "string",
          "name": "origin",
          "type": "string"
        },
        {
          "internalType": "string",
          "name": "destination",
          "type": "string"
        }
      ],
      "name": "GST",
      "outputs": [
        {
          "internalType": "uint256",
          "name": "",
          "type": "uint256"
        }
      ],
      "stateMutability": "view",
      "type": "function"
    }
  ],
  "bytecode": "0x60806040526040518060400160405280600681526020017f41637469766500000000000000000000000000000000000000000000000000008152506000908051906020019061004f9291906100b3565b5060106001556040518060400160405280600581526020017f5261676875000000000000000000000000000000000000000000000000000000815250600290805190602001906100a09291906100b3565b503480156100ad57600080fd5b506101b6565b8280546100bf90610185565b90600052602060002090601f0160209004810192826100e15760008555610128565b82601f106100fa57805160ff1916838001178555610128565b82800160010185558215610128579182015b8281111561012757825182559160200191906001019061010c565b5b5090506101359190610139565b5090565b5b8082111561015257600081600090555060010161013a565b5090565b7f4e487b7100000000000000000000000000000000000000000000000000000000600052602260045260246000fd5b6000600282049050600182168061019d57607f821691505b6020821081036101b0576101af610156565b5b50919050565b610a1c806101c56000396000f3fe608060405234801561001057600080fd5b50600436106100415760003560e01c806334c8dd7d146100465780638413e2ae14610064578063ba0773be14610082575b600080fd5b61004e6100b2565b60405161005b9190610471565b60405180910390f35b61006c6100b8565b6040516100799190610525565b60405180910390f35b61009c600480360381019061009791906106bc565b610146565b6040516100a99190610471565b60405180910390f35b60015481565b600080546100c59061079e565b80601f01602080910402602001604051908101604052809291908181526020018280546100f19061079e565b801561013e5780601f106101135761010080835404028352916020019161013e565b820191906000526020600020905b81548152906001019060200180831161012157829003601f168201915b505050505081565b600060015485036102b15760648660015461016191906107fe565b61016b9190610887565b8661017691906108b8565b840361026e578160405160200161018d919061094a565b60405160208183030381529060405280519060200120836040516020016101b4919061094a565b604051602081830303815290604052805190602001200361022757600086856101dd9190610961565b905061021e6040518060400160405280601b81526020017f5375636365737366756c6c7920706169642049475354203d2025730000000000815250826102fa565b809150506102f1565b6000600287866102379190610961565b6102419190610887565b90506102656040518060600160405280602181526020016109c660219139826102fa565b809150506102f1565b6102ac6040518060400160405280601381526020017f546178206e6f742066756c6c7920706169642100000000000000000000000000815250610396565b6102f0565b6102ef6040518060400160405280601381526020017f54617820736c6162206e6f7420657175616c2100000000000000000000000000815250610396565b5b5b95945050505050565b6103928282604051602401610310929190610995565b6040516020818303038152906040527f9710a9d0000000000000000000000000000000000000000000000000000000007bffffffffffffffffffffffffffffffffffffffffffffffffffffffff19166020820180517bffffffffffffffffffffffffffffffffffffffffffffffffffffffff838183161783525050505061042f565b5050565b61042c816040516024016103aa9190610525565b6040516020818303038152906040527f41304fac000000000000000000000000000000000000000000000000000000007bffffffffffffffffffffffffffffffffffffffffffffffffffffffff19166020820180517bffffffffffffffffffffffffffffffffffffffffffffffffffffffff838183161783525050505061042f565b50565b60008151905060006a636f6e736f6c652e6c6f679050602083016000808483855afa5050505050565b6000819050919050565b61046b81610458565b82525050565b60006020820190506104866000830184610462565b92915050565b600081519050919050565b600082825260208201905092915050565b60005b838110156104c65780820151818401526020810190506104ab565b838111156104d5576000848401525b50505050565b6000601f19601f8301169050919050565b60006104f78261048c565b6105018185610497565b93506105118185602086016104a8565b61051a816104db565b840191505092915050565b6000602082019050818103600083015261053f81846104ec565b905092915050565b6000604051905090565b600080fd5b600080fd5b61056481610458565b811461056f57600080fd5b50565b6000813590506105818161055b565b92915050565b600080fd5b600080fd5b7f4e487b7100000000000000000000000000000000000000000000000000000000600052604160045260246000fd5b6105c9826104db565b810181811067ffffffffffffffff821117156105e8576105e7610591565b5b80604052505050565b60006105fb610547565b905061060782826105c0565b919050565b600067ffffffffffffffff82111561062757610626610591565b5b610630826104db565b9050602081019050919050565b82818337600083830152505050565b600061065f61065a8461060c565b6105f1565b90508281526020810184848401111561067b5761067a61058c565b5b61068684828561063d565b509392505050565b600082601f8301126106a3576106a2610587565b5b81356106b384826020860161064c565b91505092915050565b600080600080600060a086880312156106d8576106d7610551565b5b60006106e688828901610572565b95505060206106f788828901610572565b945050604061070888828901610572565b935050606086013567ffffffffffffffff81111561072957610728610556565b5b6107358882890161068e565b925050608086013567ffffffffffffffff81111561075657610755610556565b5b6107628882890161068e565b9150509295509295909350565b7f4e487b7100000000000000000000000000000000000000000000000000000000600052602260045260246000fd5b600060028204905060018216806107b657607f821691505b6020821081036107c9576107c861076f565b5b50919050565b7f4e487b7100000000000000000000000000000000000000000000000000000000600052601160045260246000fd5b600061080982610458565b915061081483610458565b9250817fffffffffffffffffffffffffffffffffffffffffffffffffffffffffffffffff048311821515161561084d5761084c6107cf565b5b828202905092915050565b7f4e487b7100000000000000000000000000000000000000000000000000000000600052601260045260246000fd5b600061089282610458565b915061089d83610458565b9250826108ad576108ac610858565b5b828204905092915050565b60006108c382610458565b91506108ce83610458565b9250827fffffffffffffffffffffffffffffffffffffffffffffffffffffffffffffffff03821115610903576109026107cf565b5b828201905092915050565b600081905092915050565b60006109248261048c565b61092e818561090e565b935061093e8185602086016104a8565b80840191505092915050565b60006109568284610919565b915081905092915050565b600061096c82610458565b915061097783610458565b92508282101561098a576109896107cf565b5b828203905092915050565b600060408201905081810360008301526109af81856104ec565b90506109be6020830184610462565b939250505056fe5375636365737366756c6c79207061696420434753542c2053475354203d202573a2646970667358221220efd18aa51232d84640f3c30a09b62ba54029435996cfee04dc59f9f3596da99464736f6c634300080d0033",
  "immutableReferences": {},
  "source": "// SPDX-License-Identifier: MIT\n\n// Declare the versions of the Solidity Compiler\npragma solidity >=0.7.0 < 0.9.0;\n// library for logging in console\nimport \"hardhat/console.sol\";\n\n// Used to convert unint to string\n//import \"@openzeppelin/contracts/utils.Strings.sol\";\n\ncontract TestContract{\n    string public GST_App = \"Active\"; //checks whether active or not\n    uint public Check_Slab = 16; // tax slab is 16% example\n    string myName = \"Raghu\";\n\n    constructor() {}\n    // function funcName (parameterlist) scope returns() {statements}\n    // takes input taxable_amount = 100rs, item = 16%, amount_amount = 116rs, origin = A, destination = B\n    \n    function GST(uint taxable_amount, uint item, uint amount_paid, string memory origin, string memory destination) public view returns (uint){\n        if(item == Check_Slab){\n            if(amount_paid == (taxable_amount + ((Check_Slab*taxable_amount))/100)){\n                if(keccak256(abi.encodePacked((origin))) == keccak256(abi.encodePacked((destination)))){\n                    uint igst = amount_paid - taxable_amount;\n                    console.log(\"Successfully paid IGST = %s\", igst);\n                    return igst;\n                    \n                }\n                else{\n                    uint cgst = (amount_paid - taxable_amount)/2;\n                    //uint sgst = (amount_paid - taxable_amount)/2;\n                    console.log(\"Successfully paid CGST, SGST = %s\", cgst);\n                    return cgst;                    \n                }\n            }else{console.log(\"Tax not fully paid!\");}\n        }else{console.log(\"Tax slab not equal!\");}\n    }\n} \n",
  "sourcePath": "/home/kiran/Desktop/hello-eth/contracts/gst.sol",
  "compiler": {
    "name": "solc",
    "version": "0.8.13+commit.abaa5c0e.Emscripten.clang"
  },
  "schemaVersion": "3.4.7",
  "updatedAt": "2022-05-08T20:19:24.843Z",
  "devdoc": {
    "kind": "dev",
    "methods": {},
    "version": 1
  },
  "userdoc": {
    "kind": "user",
    "methods": {},
    "version": 1
  }
}